{
  "contractName": "WalletFactoryV4",
  "abi": [
    {
      "inputs": [],
      "stateMutability": "nonpayable",
      "type": "constructor"
    },
    {
      "anonymous": false,
      "inputs": [
        {
          "indexed": true,
          "internalType": "address",
          "name": "previousOwner",
          "type": "address"
        },
        {
          "indexed": true,
          "internalType": "address",
          "name": "newOwner",
          "type": "address"
        }
      ],
      "name": "OwnershipTransferred",
      "type": "event"
    },
    {
      "anonymous": false,
      "inputs": [
        {
          "indexed": false,
          "internalType": "address",
          "name": "addr",
          "type": "address"
        },
        {
          "indexed": false,
          "internalType": "string",
          "name": "did",
          "type": "string"
        }
      ],
      "name": "Registered",
      "type": "event"
    },
    {
      "anonymous": false,
      "inputs": [
        {
          "indexed": false,
          "internalType": "string",
          "name": "data",
          "type": "string"
        },
        {
          "indexed": false,
          "internalType": "address",
          "name": "addr",
          "type": "address"
        },
        {
          "indexed": false,
          "internalType": "string",
          "name": "privatekey",
          "type": "string"
        }
      ],
      "name": "Usercreated",
      "type": "event"
    },
    {
      "anonymous": false,
      "inputs": [
        {
          "indexed": true,
          "internalType": "contract MultiSigWallet",
          "name": "wallet",
          "type": "address"
        },
        {
          "indexed": false,
          "internalType": "string",
          "name": "name",
          "type": "string"
        },
        {
          "indexed": false,
          "internalType": "address[]",
          "name": "owners",
          "type": "address[]"
        },
        {
          "indexed": false,
          "internalType": "uint256",
          "name": "required",
          "type": "uint256"
        }
      ],
      "name": "WalletCreated",
      "type": "event"
    },
    {
      "inputs": [
        {
          "internalType": "string",
          "name": "",
          "type": "string"
        }
      ],
      "name": "addrs",
      "outputs": [
        {
          "internalType": "address",
          "name": "",
          "type": "address"
        }
      ],
      "stateMutability": "view",
      "type": "function",
      "constant": true
    },
    {
      "inputs": [
        {
          "internalType": "address",
          "name": "",
          "type": "address"
        }
      ],
      "name": "dids",
      "outputs": [
        {
          "internalType": "string",
          "name": "",
          "type": "string"
        }
      ],
      "stateMutability": "view",
      "type": "function",
      "constant": true
    },
    {
      "inputs": [
        {
          "internalType": "address",
          "name": "",
          "type": "address"
        }
      ],
      "name": "isRegistered",
      "outputs": [
        {
          "internalType": "bool",
          "name": "",
          "type": "bool"
        }
      ],
      "stateMutability": "view",
      "type": "function",
      "constant": true
    },
    {
      "inputs": [],
      "name": "owner",
      "outputs": [
        {
          "internalType": "address",
          "name": "",
          "type": "address"
        }
      ],
      "stateMutability": "view",
      "type": "function",
      "constant": true
    },
    {
      "inputs": [
        {
          "internalType": "string",
          "name": "",
          "type": "string"
        }
      ],
      "name": "userExist",
      "outputs": [
        {
          "internalType": "bool",
          "name": "",
          "type": "bool"
        }
      ],
      "stateMutability": "view",
      "type": "function",
      "constant": true
    },
    {
      "inputs": [
        {
          "internalType": "string",
          "name": "",
          "type": "string"
        },
        {
          "internalType": "uint256",
          "name": "",
          "type": "uint256"
        }
      ],
      "name": "users",
      "outputs": [
        {
          "internalType": "address",
          "name": "addr",
          "type": "address"
        },
        {
          "internalType": "string",
          "name": "privatekey",
          "type": "string"
        }
      ],
      "stateMutability": "view",
      "type": "function",
      "constant": true
    },
    {
      "inputs": [
        {
          "internalType": "string",
          "name": "",
          "type": "string"
        },
        {
          "internalType": "uint256",
          "name": "",
          "type": "uint256"
        }
      ],
      "name": "vcs",
      "outputs": [
        {
          "internalType": "string",
          "name": "name",
          "type": "string"
        },
        {
          "internalType": "string",
          "name": "cid",
          "type": "string"
        }
      ],
      "stateMutability": "view",
      "type": "function",
      "constant": true
    },
    {
      "inputs": [
        {
          "internalType": "uint256",
          "name": "",
          "type": "uint256"
        }
      ],
      "name": "wallets",
      "outputs": [
        {
          "internalType": "contract MultiSigWallet",
          "name": "",
          "type": "address"
        }
      ],
      "stateMutability": "view",
      "type": "function",
      "constant": true
    },
    {
      "inputs": [],
      "name": "walletsCount",
      "outputs": [
        {
          "internalType": "uint256",
          "name": "",
          "type": "uint256"
        }
      ],
      "stateMutability": "view",
      "type": "function",
      "constant": true
    },
    {
      "inputs": [
        {
          "internalType": "string",
          "name": "_name",
          "type": "string"
        },
        {
          "internalType": "address[]",
          "name": "_owners",
          "type": "address[]"
        },
        {
          "internalType": "uint256",
          "name": "_required",
          "type": "uint256"
        }
      ],
      "name": "createWallet",
      "outputs": [],
      "stateMutability": "nonpayable",
      "type": "function"
    },
    {
      "inputs": [
        {
          "internalType": "uint256",
          "name": "limit",
          "type": "uint256"
        },
        {
          "internalType": "uint256",
          "name": "offset",
          "type": "uint256"
        }
      ],
      "name": "getWallets",
      "outputs": [
        {
          "internalType": "contract MultiSigWallet[]",
          "name": "coll",
          "type": "address[]"
        }
      ],
      "stateMutability": "view",
      "type": "function",
      "constant": true
    },
    {
      "inputs": [
        {
          "internalType": "uint256",
          "name": "index",
          "type": "uint256"
        }
      ],
      "name": "deleteWallets",
      "outputs": [],
      "stateMutability": "nonpayable",
      "type": "function"
    },
    {
      "inputs": [
        {
          "internalType": "address",
          "name": "_addr",
          "type": "address"
        },
        {
          "internalType": "string",
          "name": "_did",
          "type": "string"
        }
      ],
      "name": "register",
      "outputs": [],
      "stateMutability": "nonpayable",
      "type": "function"
    },
    {
      "inputs": [
        {
          "internalType": "string",
          "name": "_data",
          "type": "string"
        },
        {
          "internalType": "address",
          "name": "_addr",
          "type": "address"
        },
        {
          "internalType": "string",
          "name": "_privatekey",
          "type": "string"
        }
      ],
      "name": "creatUser",
      "outputs": [],
      "stateMutability": "nonpayable",
      "type": "function"
    },
    {
      "inputs": [
        {
          "internalType": "string",
          "name": "_data",
          "type": "string"
        }
      ],
      "name": "getUser",
      "outputs": [
        {
          "components": [
            {
              "internalType": "address",
              "name": "addr",
              "type": "address"
            },
            {
              "internalType": "string",
              "name": "privatekey",
              "type": "string"
            }
          ],
          "internalType": "struct WalletFactoryV4.userInfo[]",
          "name": "",
          "type": "tuple[]"
        }
      ],
      "stateMutability": "view",
      "type": "function",
      "constant": true
    },
    {
      "inputs": [
        {
          "internalType": "string",
          "name": "_did",
          "type": "string"
        }
      ],
      "name": "getVcs",
      "outputs": [
        {
          "components": [
            {
              "internalType": "string",
              "name": "name",
              "type": "string"
            },
            {
              "internalType": "string",
              "name": "cid",
              "type": "string"
            }
          ],
          "internalType": "struct WalletFactoryV4.VcInfo[]",
          "name": "",
          "type": "tuple[]"
        }
      ],
      "stateMutability": "view",
      "type": "function",
      "constant": true
    },
    {
      "inputs": [
        {
          "internalType": "string",
          "name": "_did",
          "type": "string"
        },
        {
          "internalType": "string",
          "name": "_name",
          "type": "string"
        },
        {
          "internalType": "string",
          "name": "_cid",
          "type": "string"
        }
      ],
      "name": "updateVc",
      "outputs": [],
      "stateMutability": "nonpayable",
      "type": "function"
    },
    {
      "inputs": [
        {
          "internalType": "address",
          "name": "newOwner",
          "type": "address"
        }
      ],
      "name": "transferOwnership",
      "outputs": [],
      "stateMutability": "nonpayable",
      "type": "function"
    }
  ],
  "bytecode": "0x608060405234801561001057600080fd5b5033600160006101000a81548173ffffffffffffffffffffffffffffffffffffffff021916908373ffffffffffffffffffffffffffffffffffffffff160217905550615cc2806100616000396000f3fe60806040523480156200001157600080fd5b5060043610620001305760003560e01c8063755c808711620000b1578063c3c5a547116200007b578063c3c5a547146200038a578063c458481314620003c0578063d4e15c7814620003f7578063e5b0ef9b1462000417578063f2fde38b14620004375762000130565b8063755c808714620002c55780637ad71f7214620002fb5780638da5cb5b1462000331578063afe32cb214620003535762000130565b806332434a2e11620000ff57806332434a2e14620001f75780633593f81b14620002175780633bdb6fa3146200024d57806347b2470d146200026d5780634ce9dde5146200028f5762000130565b80630f5fd4d814620001355780631b81e2d214620001555780632cc2548f146200018b57806331feb67114620001c1575b600080fd5b6200015360048036038101906200014d919062001e60565b62000457565b005b6200017360048036038101906200016d919062001efa565b620006ea565b60405162000182919062001f68565b60405180910390f35b620001a96004803603810190620001a3919062001efa565b62000720565b604051620001b8919062001f96565b60405180910390f35b620001df6004803603810190620001d9919062001efa565b62000769565b604051620001ee919062002168565b60405180910390f35b6200021560048036038101906200020f91906200218c565b620008da565b005b6200023560048036038101906200022f9190620021f2565b62000b49565b60405162000244919062002276565b60405180910390f35b6200026b6004803603810190620002659190620022d5565b62000bf1565b005b6200027762000e83565b60405162000286919062002318565b60405180910390f35b620002ad6004803603810190620002a7919062002335565b62000e8f565b604051620002bc9190620024a4565b60405180910390f35b620002e36004803603810190620002dd919062001efa565b6200103b565b604051620002f29190620025e0565b60405180910390f35b620003196004803603810190620003139190620022d5565b620011f0565b60405162000328919062002615565b60405180910390f35b6200033b62001230565b6040516200034a919062001f96565b60405180910390f35b6200037160048036038101906200036b919062002632565b62001256565b6040516200038192919062002698565b60405180910390f35b620003a86004803603810190620003a29190620021f2565b620013ce565b604051620003b7919062001f68565b60405180910390f35b620003de6004803603810190620003d8919062002632565b620013ee565b604051620003ee929190620026d3565b60405180910390f35b6200041560048036038101906200040f9190620027e2565b620014f6565b005b6200043560048036038101906200042f91906200287c565b62001618565b005b6200045560048036038101906200044f9190620021f2565b620016f3565b005b600160009054906101000a900473ffffffffffffffffffffffffffffffffffffffff1673ffffffffffffffffffffffffffffffffffffffff163373ffffffffffffffffffffffffffffffffffffffff1614620004ea576040517f08c379a0000000000000000000000000000000000000000000000000000000008152600401620004e190620029ab565b60405180910390fd5b600383604051620004fc919062002a0f565b908152602001604051809103902060009054906101000a900460ff16156200055b576040517f08c379a0000000000000000000000000000000000000000000000000000000008152600401620005529062002a9e565b60405180910390fd5b60016003846040516200056f919062002a0f565b908152602001604051809103902060006101000a81548160ff0219169083151502179055506000600784604051620005a8919062002a0f565b908152602001604051809103902090508060405180604001604052808573ffffffffffffffffffffffffffffffffffffffff16815260200184815250908060018154018082558091505060019003906000526020600020906002020160009091909190915060008201518160000160006101000a81548173ffffffffffffffffffffffffffffffffffffffff021916908373ffffffffffffffffffffffffffffffffffffffff160217905550602082015181600101908051906020019062000672929190620018cd565b5050508060078560405162000688919062002a0f565b9081526020016040518091039020908054620006a69291906200195e565b507f53dad20228911307e886bc6e4d6181d383aa4bcc939101b6c4aa4f3764bea128848484604051620006dc9392919062002ac0565b60405180910390a150505050565b6003818051602081018201805184825260208301602085012081835280955050505050506000915054906101000a900460ff1681565b6005818051602081018201805184825260208301602085012081835280955050505050506000915054906101000a900473ffffffffffffffffffffffffffffffffffffffff1681565b60606007826040516200077d919062002a0f565b9081526020016040518091039020805480602002602001604051908101604052809291908181526020016000905b82821015620008cf57838290600052602060002090600202016040518060400160405290816000820160009054906101000a900473ffffffffffffffffffffffffffffffffffffffff1673ffffffffffffffffffffffffffffffffffffffff1673ffffffffffffffffffffffffffffffffffffffff168152602001600182018054620008379062002b3a565b80601f0160208091040260200160405190810160405280929190818152602001828054620008659062002b3a565b8015620008b65780601f106200088a57610100808354040283529160200191620008b6565b820191906000526020600020905b8154815290600101906020018083116200089857829003601f168201915b50505050508152505081526020019060010190620007ab565b505050509050919050565b600160009054906101000a900473ffffffffffffffffffffffffffffffffffffffff1673ffffffffffffffffffffffffffffffffffffffff163373ffffffffffffffffffffffffffffffffffffffff16146200096d576040517f08c379a00000000000000000000000000000000000000000000000000000000081526004016200096490620029ab565b60405180910390fd5b600260008373ffffffffffffffffffffffffffffffffffffffff1673ffffffffffffffffffffffffffffffffffffffff16815260200190815260200160002060009054906101000a900460ff1615620009fd576040517f08c379a0000000000000000000000000000000000000000000000000000000008152600401620009f49062002a9e565b60405180910390fd5b6001600260008473ffffffffffffffffffffffffffffffffffffffff1673ffffffffffffffffffffffffffffffffffffffff16815260200190815260200160002060006101000a81548160ff02191690831515021790555080600460008473ffffffffffffffffffffffffffffffffffffffff1673ffffffffffffffffffffffffffffffffffffffff168152602001908152602001600020908051906020019062000aaa929190620018cd565b508160058260405162000abe919062002a0f565b908152602001604051809103902060006101000a81548173ffffffffffffffffffffffffffffffffffffffff021916908373ffffffffffffffffffffffffffffffffffffffff1602179055507fb3eccf73f39b1c07947c780b2b39df2a1bb058b4037b0a42d0881ca1a028a132828260405162000b3d929190620026d3565b60405180910390a15050565b6004602052806000526040600020600091509050805462000b6a9062002b3a565b80601f016020809104026020016040519081016040528092919081815260200182805462000b989062002b3a565b801562000be95780601f1062000bbd5761010080835404028352916020019162000be9565b820191906000526020600020905b81548152906001019060200180831162000bcb57829003601f168201915b505050505081565b600160009054906101000a900473ffffffffffffffffffffffffffffffffffffffff1673ffffffffffffffffffffffffffffffffffffffff163373ffffffffffffffffffffffffffffffffffffffff161462000c84576040517f08c379a000000000000000000000000000000000000000000000000000000000815260040162000c7b90620029ab565b60405180910390fd5b6000805b600160008054905062000c9c919062002b9f565b81101562000e34578083141562000d6657600060018262000cbe919062002bda565b8154811062000cd25762000cd162002c37565b5b9060005260206000200160009054906101000a900473ffffffffffffffffffffffffffffffffffffffff166000828154811062000d145762000d1362002c37565b5b9060005260206000200160006101000a81548173ffffffffffffffffffffffffffffffffffffffff021916908373ffffffffffffffffffffffffffffffffffffffff1602179055506001915062000e1e565b811562000e1d57600060018262000d7e919062002bda565b8154811062000d925762000d9162002c37565b5b9060005260206000200160009054906101000a900473ffffffffffffffffffffffffffffffffffffffff166000828154811062000dd45762000dd362002c37565b5b9060005260206000200160006101000a81548173ffffffffffffffffffffffffffffffffffffffff021916908373ffffffffffffffffffffffffffffffffffffffff1602179055505b5b808062000e2b9062002c66565b91505062000c88565b50600080548062000e4a5762000e4962002cb4565b5b6001900381819060005260206000200160006101000a81549073ffffffffffffffffffffffffffffffffffffffff021916905590555050565b60008080549050905090565b606062000e9b62000e83565b82111562000ee0576040517f08c379a000000000000000000000000000000000000000000000000000000000815260040162000ed79062002d33565b60405180910390fd5b60008262000eed62000e83565b62000ef9919062002b9f565b905083811062000f0a578362000f0c565b805b90506014811062000f1f57601462000f21565b805b90508067ffffffffffffffff81111562000f405762000f3f62001cb4565b5b60405190808252806020026020018201604052801562000f6f5781602001602082028036833780820191505090505b50915060005b8181101562001033576000818562000f8e919062002bda565b8154811062000fa25762000fa162002c37565b5b9060005260206000200160009054906101000a900473ffffffffffffffffffffffffffffffffffffffff1683828151811062000fe35762000fe262002c37565b5b602002602001019073ffffffffffffffffffffffffffffffffffffffff16908173ffffffffffffffffffffffffffffffffffffffff168152505080806200102a9062002c66565b91505062000f75565b505092915050565b60606006826040516200104f919062002a0f565b9081526020016040518091039020805480602002602001604051908101604052809291908181526020016000905b82821015620011e55783829060005260206000209060020201604051806040016040529081600082018054620010b39062002b3a565b80601f0160208091040260200160405190810160405280929190818152602001828054620010e19062002b3a565b8015620011325780601f10620011065761010080835404028352916020019162001132565b820191906000526020600020905b8154815290600101906020018083116200111457829003601f168201915b505050505081526020016001820180546200114d9062002b3a565b80601f01602080910402602001604051908101604052809291908181526020018280546200117b9062002b3a565b8015620011cc5780601f10620011a057610100808354040283529160200191620011cc565b820191906000526020600020905b815481529060010190602001808311620011ae57829003601f168201915b505050505081525050815260200190600101906200107d565b505050509050919050565b600081815481106200120157600080fd5b906000526020600020016000915054906101000a900473ffffffffffffffffffffffffffffffffffffffff1681565b600160009054906101000a900473ffffffffffffffffffffffffffffffffffffffff1681565b60068280516020810182018051848252602083016020850120818352809550505050505081815481106200128957600080fd5b906000526020600020906002020160009150915050806000018054620012af9062002b3a565b80601f0160208091040260200160405190810160405280929190818152602001828054620012dd9062002b3a565b80156200132e5780601f1062001302576101008083540402835291602001916200132e565b820191906000526020600020905b8154815290600101906020018083116200131057829003601f168201915b505050505090806001018054620013459062002b3a565b80601f0160208091040260200160405190810160405280929190818152602001828054620013739062002b3a565b8015620013c45780601f106200139857610100808354040283529160200191620013c4565b820191906000526020600020905b815481529060010190602001808311620013a657829003601f168201915b5050505050905082565b60026020528060005260406000206000915054906101000a900460ff1681565b60078280516020810182018051848252602083016020850120818352809550505050505081815481106200142157600080fd5b9060005260206000209060020201600091509150508060000160009054906101000a900473ffffffffffffffffffffffffffffffffffffffff16908060010180546200146d9062002b3a565b80601f01602080910402602001604051908101604052809291908181526020018280546200149b9062002b3a565b8015620014ec5780601f10620014c057610100808354040283529160200191620014ec565b820191906000526020600020905b815481529060010190602001808311620014ce57829003601f168201915b5050505050905082565b60008383600160009054906101000a900473ffffffffffffffffffffffffffffffffffffffff16846040516200152c9062001a46565b6200153b949392919062002e12565b604051809103906000f08015801562001558573d6000803e3d6000fd5b5090506000819080600181540180825580915050600190039060005260206000200160009091909190916101000a81548173ffffffffffffffffffffffffffffffffffffffff021916908373ffffffffffffffffffffffffffffffffffffffff1602179055508073ffffffffffffffffffffffffffffffffffffffff167f467134363b98966f95b3f5c5b3a4fef880fcf46db0752f27f77d960d06a400708585856040516200160a9392919062002e6d565b60405180910390a250505050565b60006006846040516200162c919062002a0f565b90815260200160405180910390209050806040518060400160405280858152602001848152509080600181540180825580915050600190039060005260206000209060020201600090919091909150600082015181600001908051906020019062001699929190620018cd565b506020820151816001019080519060200190620016b8929190620018cd565b50505080600685604051620016ce919062002a0f565b9081526020016040518091039020908054620016ec92919062001a54565b5050505050565b600160009054906101000a900473ffffffffffffffffffffffffffffffffffffffff1673ffffffffffffffffffffffffffffffffffffffff163373ffffffffffffffffffffffffffffffffffffffff161462001786576040517f08c379a00000000000000000000000000000000000000000000000000000000081526004016200177d90620029ab565b60405180910390fd5b600073ffffffffffffffffffffffffffffffffffffffff168173ffffffffffffffffffffffffffffffffffffffff161415620017f9576040517f08c379a0000000000000000000000000000000000000000000000000000000008152600401620017f09062002f2e565b60405180910390fd5b620018048162001807565b50565b6000600160009054906101000a900473ffffffffffffffffffffffffffffffffffffffff16905081600160006101000a81548173ffffffffffffffffffffffffffffffffffffffff021916908373ffffffffffffffffffffffffffffffffffffffff1602179055508173ffffffffffffffffffffffffffffffffffffffff168173ffffffffffffffffffffffffffffffffffffffff167f8be0079c531659141344cd1fd0a4f28419497f9722a3daafe3b4186f6b6457e060405160405180910390a35050565b828054620018db9062002b3a565b90600052602060002090601f016020900481019282620018ff57600085556200194b565b82601f106200191a57805160ff19168380011785556200194b565b828001600101855582156200194b579182015b828111156200194a5782518255916020019190600101906200192d565b5b5090506200195a919062001af9565b5090565b82805482825590600052602060002090600202810192821562001a335760005260206000209160020282015b8281111562001a325782826000820160009054906101000a900473ffffffffffffffffffffffffffffffffffffffff168160000160006101000a81548173ffffffffffffffffffffffffffffffffffffffff021916908373ffffffffffffffffffffffffffffffffffffffff160217905550600182018160010190805462001a129062002b3a565b62001a1f92919062001b18565b505050916002019190600201906200198a565b5b50905062001a42919062001bb0565b5090565b612d3c8062002f5183390190565b82805482825590600052602060002090600202810192821562001ae65760005260206000209160020282015b8281111562001ae5578282600082018160000190805462001aa19062002b3a565b62001aae92919062001b18565b50600182018160010190805462001ac59062002b3a565b62001ad292919062001b18565b5050509160020191906002019062001a80565b5b50905062001af5919062001c02565b5090565b5b8082111562001b1457600081600090555060010162001afa565b5090565b82805462001b269062002b3a565b90600052602060002090601f01602090048101928262001b4a576000855562001b9d565b82601f1062001b5d578054855562001b9d565b8280016001018555821562001b9d57600052602060002091601f016020900482015b8281111562001b9c57825482559160010191906001019062001b7f565b5b50905062001bac919062001af9565b5090565b5b8082111562001bfe57600080820160006101000a81549073ffffffffffffffffffffffffffffffffffffffff021916905560018201600062001bf4919062001c3f565b5060020162001bb1565b5090565b5b8082111562001c3b576000808201600062001c1f919062001c3f565b60018201600062001c31919062001c3f565b5060020162001c03565b5090565b50805462001c4d9062002b3a565b6000825580601f1062001c61575062001c82565b601f01602090049060005260206000209081019062001c81919062001af9565b5b50565b6000604051905090565b600080fd5b600080fd5b600080fd5b600080fd5b6000601f19601f8301169050919050565b7f4e487b7100000000000000000000000000000000000000000000000000000000600052604160045260246000fd5b62001cee8262001ca3565b810181811067ffffffffffffffff8211171562001d105762001d0f62001cb4565b5b80604052505050565b600062001d2562001c85565b905062001d33828262001ce3565b919050565b600067ffffffffffffffff82111562001d565762001d5562001cb4565b5b62001d618262001ca3565b9050602081019050919050565b82818337600083830152505050565b600062001d9462001d8e8462001d38565b62001d19565b90508281526020810184848401111562001db35762001db262001c9e565b5b62001dc084828562001d6e565b509392505050565b600082601f83011262001de05762001ddf62001c99565b5b813562001df284826020860162001d7d565b91505092915050565b600073ffffffffffffffffffffffffffffffffffffffff82169050919050565b600062001e288262001dfb565b9050919050565b62001e3a8162001e1b565b811462001e4657600080fd5b50565b60008135905062001e5a8162001e2f565b92915050565b60008060006060848603121562001e7c5762001e7b62001c8f565b5b600084013567ffffffffffffffff81111562001e9d5762001e9c62001c94565b5b62001eab8682870162001dc8565b935050602062001ebe8682870162001e49565b925050604084013567ffffffffffffffff81111562001ee25762001ee162001c94565b5b62001ef08682870162001dc8565b9150509250925092565b60006020828403121562001f135762001f1262001c8f565b5b600082013567ffffffffffffffff81111562001f345762001f3362001c94565b5b62001f428482850162001dc8565b91505092915050565b60008115159050919050565b62001f628162001f4b565b82525050565b600060208201905062001f7f600083018462001f57565b92915050565b62001f908162001e1b565b82525050565b600060208201905062001fad600083018462001f85565b92915050565b600081519050919050565b600082825260208201905092915050565b6000819050602082019050919050565b62001fea8162001e1b565b82525050565b600081519050919050565b600082825260208201905092915050565b60005b838110156200202c5780820151818401526020810190506200200f565b838111156200203c576000848401525b50505050565b60006200204f8262001ff0565b6200205b818562001ffb565b93506200206d8185602086016200200c565b620020788162001ca3565b840191505092915050565b60006040830160008301516200209d600086018262001fdf565b5060208301518482036020860152620020b7828262002042565b9150508091505092915050565b6000620020d2838362002083565b905092915050565b6000602082019050919050565b6000620020f48262001fb3565b62002100818562001fbe565b935083602082028501620021148562001fcf565b8060005b85811015620021565784840389528151620021348582620020c4565b94506200214183620020da565b925060208a0199505060018101905062002118565b50829750879550505050505092915050565b60006020820190508181036000830152620021848184620020e7565b905092915050565b60008060408385031215620021a657620021a562001c8f565b5b6000620021b68582860162001e49565b925050602083013567ffffffffffffffff811115620021da57620021d962001c94565b5b620021e88582860162001dc8565b9150509250929050565b6000602082840312156200220b576200220a62001c8f565b5b60006200221b8482850162001e49565b91505092915050565b600082825260208201905092915050565b6000620022428262001ff0565b6200224e818562002224565b9350620022608185602086016200200c565b6200226b8162001ca3565b840191505092915050565b6000602082019050818103600083015262002292818462002235565b905092915050565b6000819050919050565b620022af816200229a565b8114620022bb57600080fd5b50565b600081359050620022cf81620022a4565b92915050565b600060208284031215620022ee57620022ed62001c8f565b5b6000620022fe84828501620022be565b91505092915050565b62002312816200229a565b82525050565b60006020820190506200232f600083018462002307565b92915050565b600080604083850312156200234f576200234e62001c8f565b5b60006200235f85828601620022be565b92505060206200237285828601620022be565b9150509250929050565b600081519050919050565b600082825260208201905092915050565b6000819050602082019050919050565b6000819050919050565b6000620023d3620023cd620023c78462001dfb565b620023a8565b62001dfb565b9050919050565b6000620023e782620023b2565b9050919050565b6000620023fb82620023da565b9050919050565b6200240d81620023ee565b82525050565b600062002421838362002402565b60208301905092915050565b6000602082019050919050565b600062002447826200237c565b62002453818562002387565b9350620024608362002398565b8060005b83811015620024975781516200247b888262002413565b975062002488836200242d565b92505060018101905062002464565b5085935050505092915050565b60006020820190508181036000830152620024c081846200243a565b905092915050565b600081519050919050565b600082825260208201905092915050565b6000819050602082019050919050565b6000604083016000830151848203600086015262002513828262002042565b915050602083015184820360208601526200252f828262002042565b9150508091505092915050565b60006200254a8383620024f4565b905092915050565b6000602082019050919050565b60006200256c82620024c8565b620025788185620024d3565b9350836020820285016200258c85620024e4565b8060005b85811015620025ce5784840389528151620025ac85826200253c565b9450620025b98362002552565b925060208a0199505060018101905062002590565b50829750879550505050505092915050565b60006020820190508181036000830152620025fc81846200255f565b905092915050565b6200260f81620023ee565b82525050565b60006020820190506200262c600083018462002604565b92915050565b600080604083850312156200264c576200264b62001c8f565b5b600083013567ffffffffffffffff8111156200266d576200266c62001c94565b5b6200267b8582860162001dc8565b92505060206200268e85828601620022be565b9150509250929050565b60006040820190508181036000830152620026b4818562002235565b90508181036020830152620026ca818462002235565b90509392505050565b6000604082019050620026ea600083018562001f85565b8181036020830152620026fe818462002235565b90509392505050565b600067ffffffffffffffff82111562002725576200272462001cb4565b5b602082029050602081019050919050565b600080fd5b6000620027526200274c8462002707565b62001d19565b9050808382526020820190506020840283018581111562002778576200277762002736565b5b835b81811015620027a5578062002790888262001e49565b8452602084019350506020810190506200277a565b5050509392505050565b600082601f830112620027c757620027c662001c99565b5b8135620027d98482602086016200273b565b91505092915050565b600080600060608486031215620027fe57620027fd62001c8f565b5b600084013567ffffffffffffffff8111156200281f576200281e62001c94565b5b6200282d8682870162001dc8565b935050602084013567ffffffffffffffff81111562002851576200285062001c94565b5b6200285f86828701620027af565b92505060406200287286828701620022be565b9150509250925092565b60008060006060848603121562002898576200289762001c8f565b5b600084013567ffffffffffffffff811115620028b957620028b862001c94565b5b620028c78682870162001dc8565b935050602084013567ffffffffffffffff811115620028eb57620028ea62001c94565b5b620028f98682870162001dc8565b925050604084013567ffffffffffffffff8111156200291d576200291c62001c94565b5b6200292b8682870162001dc8565b9150509250925092565b7f546869732061646472657373206973206e6f7420616e206f776e65722061646460008201527f7265737321000000000000000000000000000000000000000000000000000000602082015250565b60006200299360258362002224565b9150620029a08262002935565b604082019050919050565b60006020820190508181036000830152620029c68162002984565b9050919050565b600081905092915050565b6000620029e58262001ff0565b620029f18185620029cd565b935062002a038185602086016200200c565b80840191505092915050565b600062002a1d8284620029d8565b915081905092915050565b7f54686973206164647265737320697320616c726561647920726567697374657260008201527f6564212100000000000000000000000000000000000000000000000000000000602082015250565b600062002a8660248362002224565b915062002a938262002a28565b604082019050919050565b6000602082019050818103600083015262002ab98162002a77565b9050919050565b6000606082019050818103600083015262002adc818662002235565b905062002aed602083018562001f85565b818103604083015262002b01818462002235565b9050949350505050565b7f4e487b7100000000000000000000000000000000000000000000000000000000600052602260045260246000fd5b6000600282049050600182168062002b5357607f821691505b6020821081141562002b6a5762002b6962002b0b565b5b50919050565b7f4e487b7100000000000000000000000000000000000000000000000000000000600052601160045260246000fd5b600062002bac826200229a565b915062002bb9836200229a565b92508282101562002bcf5762002bce62002b70565b5b828203905092915050565b600062002be7826200229a565b915062002bf4836200229a565b9250827fffffffffffffffffffffffffffffffffffffffffffffffffffffffffffffffff0382111562002c2c5762002c2b62002b70565b5b828201905092915050565b7f4e487b7100000000000000000000000000000000000000000000000000000000600052603260045260246000fd5b600062002c73826200229a565b91507fffffffffffffffffffffffffffffffffffffffffffffffffffffffffffffffff82141562002ca95762002ca862002b70565b5b600182019050919050565b7f4e487b7100000000000000000000000000000000000000000000000000000000600052603160045260246000fd5b7f6f6666736574206f7574206f6620626f756e6473000000000000000000000000600082015250565b600062002d1b60148362002224565b915062002d288262002ce3565b602082019050919050565b6000602082019050818103600083015262002d4e8162002d0c565b9050919050565b600081519050919050565b600082825260208201905092915050565b6000819050602082019050919050565b600062002d8f838362001fdf565b60208301905092915050565b6000602082019050919050565b600062002db58262002d55565b62002dc1818562002d60565b935062002dce8362002d71565b8060005b8381101562002e0557815162002de9888262002d81565b975062002df68362002d9b565b92505060018101905062002dd2565b5085935050505092915050565b6000608082019050818103600083015262002e2e818762002235565b9050818103602083015262002e44818662002da8565b905062002e55604083018562001f85565b62002e64606083018462002307565b95945050505050565b6000606082019050818103600083015262002e89818662002235565b9050818103602083015262002e9f818562002da8565b905062002eb0604083018462002307565b949350505050565b7f4f776e61626c653a206e6577206f776e657220697320746865207a65726f206160008201527f6464726573730000000000000000000000000000000000000000000000000000602082015250565b600062002f1660268362002224565b915062002f238262002eb8565b604082019050919050565b6000602082019050818103600083015262002f498162002f07565b905091905056fe60806040523480156200001157600080fd5b5060405162002d3c38038062002d3c83398181016040528101906200003791906200070a565b60008351116200007e576040517f08c379a0000000000000000000000000000000000000000000000000000000008152600401620000759062000841565b60405180910390fd5b60008111801562000090575082518111155b620000d2576040517f08c379a0000000000000000000000000000000000000000000000000000000008152600401620000c990620008d9565b60405180910390fd5b81600260006101000a81548173ffffffffffffffffffffffffffffffffffffffff021916908373ffffffffffffffffffffffffffffffffffffffff16021790555060005b835181101562000317576000848281518110620001385762000137620008fb565b5b60200260200101519050600073ffffffffffffffffffffffffffffffffffffffff168173ffffffffffffffffffffffffffffffffffffffff161415620001b5576040517f08c379a0000000000000000000000000000000000000000000000000000000008152600401620001ac906200097a565b60405180910390fd5b600560008273ffffffffffffffffffffffffffffffffffffffff1673ffffffffffffffffffffffffffffffffffffffff16815260200190815260200160002060009054906101000a900460ff161562000245576040517f08c379a00000000000000000000000000000000000000000000000000000000081526004016200023c90620009ec565b60405180910390fd5b6001600560008373ffffffffffffffffffffffffffffffffffffffff1673ffffffffffffffffffffffffffffffffffffffff16815260200190815260200160002060006101000a81548160ff0219169083151502179055506001819080600181540180825580915050600190039060005260206000200160009091909190916101000a81548173ffffffffffffffffffffffffffffffffffffffff021916908373ffffffffffffffffffffffffffffffffffffffff1602179055505080806200030e9062000a3d565b91505062000116565b5083600090805190602001906200033092919062000342565b50806003819055505050505062000af0565b828054620003509062000aba565b90600052602060002090601f016020900481019282620003745760008555620003c0565b82601f106200038f57805160ff1916838001178555620003c0565b82800160010185558215620003c0579182015b82811115620003bf578251825591602001919060010190620003a2565b5b509050620003cf9190620003d3565b5090565b5b80821115620003ee576000816000905550600101620003d4565b5090565b6000604051905090565b600080fd5b600080fd5b600080fd5b600080fd5b6000601f19601f8301169050919050565b7f4e487b7100000000000000000000000000000000000000000000000000000000600052604160045260246000fd5b6200045b8262000410565b810181811067ffffffffffffffff821117156200047d576200047c62000421565b5b80604052505050565b600062000492620003f2565b9050620004a0828262000450565b919050565b600067ffffffffffffffff821115620004c357620004c262000421565b5b620004ce8262000410565b9050602081019050919050565b60005b83811015620004fb578082015181840152602081019050620004de565b838111156200050b576000848401525b50505050565b6000620005286200052284620004a5565b62000486565b9050828152602081018484840111156200054757620005466200040b565b5b62000554848285620004db565b509392505050565b600082601f83011262000574576200057362000406565b5b81516200058684826020860162000511565b91505092915050565b600067ffffffffffffffff821115620005ad57620005ac62000421565b5b602082029050602081019050919050565b600080fd5b600073ffffffffffffffffffffffffffffffffffffffff82169050919050565b6000620005f082620005c3565b9050919050565b6200060281620005e3565b81146200060e57600080fd5b50565b6000815190506200062281620005f7565b92915050565b60006200063f62000639846200058f565b62000486565b90508083825260208201905060208402830185811115620006655762000664620005be565b5b835b818110156200069257806200067d888262000611565b84526020840193505060208101905062000667565b5050509392505050565b600082601f830112620006b457620006b362000406565b5b8151620006c684826020860162000628565b91505092915050565b6000819050919050565b620006e481620006cf565b8114620006f057600080fd5b50565b6000815190506200070481620006d9565b92915050565b60008060008060808587031215620007275762000726620003fc565b5b600085015167ffffffffffffffff81111562000748576200074762000401565b5b62000756878288016200055c565b945050602085015167ffffffffffffffff8111156200077a576200077962000401565b5b62000788878288016200069c565b93505060406200079b8782880162000611565b9250506060620007ae87828801620006f3565b91505092959194509250565b600082825260208201905092915050565b7f6e756d626572206f66206f776e657220616464726573736573206d757374206260008201527f65206d6f7265207468616e207a65726f21210000000000000000000000000000602082015250565b600062000829603283620007ba565b91506200083682620007cb565b604082019050919050565b600060208201905081810360008301526200085c816200081a565b9050919050565b7f696e76616c6964207265717569726564206e756d626572206f66206f776e657260008201527f7300000000000000000000000000000000000000000000000000000000000000602082015250565b6000620008c1602183620007ba565b9150620008ce8262000863565b604082019050919050565b60006020820190508181036000830152620008f481620008b2565b9050919050565b7f4e487b7100000000000000000000000000000000000000000000000000000000600052603260045260246000fd5b7f696e76616c696420616464726573730000000000000000000000000000000000600082015250565b600062000962600f83620007ba565b91506200096f826200092a565b602082019050919050565b60006020820190508181036000830152620009958162000953565b9050919050565b7f6f776e6572206973206e6f7420756e6971756500000000000000000000000000600082015250565b6000620009d4601383620007ba565b9150620009e1826200099c565b602082019050919050565b6000602082019050818103600083015262000a0781620009c5565b9050919050565b7f4e487b7100000000000000000000000000000000000000000000000000000000600052601160045260246000fd5b600062000a4a82620006cf565b91507fffffffffffffffffffffffffffffffffffffffffffffffffffffffffffffffff82141562000a805762000a7f62000a0e565b5b600182019050919050565b7f4e487b7100000000000000000000000000000000000000000000000000000000600052602260045260246000fd5b6000600282049050600182168062000ad357607f821691505b6020821081141562000aea5762000ae962000a8b565b5b50919050565b61223c8062000b006000396000f3fe6080604052600436106101185760003560e01c80638253951a116100a0578063dc8452cd11610064578063dc8452cd14610427578063e0cedd9c14610452578063eda8b7cd1461047d578063fe0d94c1146104ba578063febe4909146104d65761016f565b80638253951a146103175780638c85cd85146103545780639ace38c214610391578063a0e67e2b146103d1578063cf8d8ca0146103fc5761016f565b806320c5429b116100e757806320c5429b146102305780632ec4c6ae146102595780632f54bf6e146102845780635c222bad146102c157806373ff81cc146102ec5761016f565b8063025e7c27146101745780631398a5f6146101b157806314de327f146101dc57806317d7de7c146102055761016f565b3661016f573373ffffffffffffffffffffffffffffffffffffffff167f90890809c654f11d6e72a28fa60149770a0d11ec6c92319d6ceb2bb0a4ea1a153447604051610165929190611644565b60405180910390a2005b600080fd5b34801561018057600080fd5b5061019b600480360381019061019691906116a3565b6104ff565b6040516101a89190611711565b60405180910390f35b3480156101bd57600080fd5b506101c661053e565b6040516101d3919061172c565b60405180910390f35b3480156101e857600080fd5b5061020360048036038101906101fe91906117ea565b610548565b005b34801561021157600080fd5b5061021a6107a9565b60405161022791906118f7565b60405180910390f35b34801561023c57600080fd5b50610257600480360381019061025291906116a3565b61083b565b005b34801561026557600080fd5b5061026e610afe565b60405161027b9190611711565b60405180910390f35b34801561029057600080fd5b506102ab60048036038101906102a69190611945565b610b24565b6040516102b8919061198d565b60405180910390f35b3480156102cd57600080fd5b506102d6610b44565b6040516102e3919061172c565b60405180910390f35b3480156102f857600080fd5b50610301610b4c565b60405161030e919061172c565b60405180910390f35b34801561032357600080fd5b5061033e600480360381019061033991906119a8565b610b59565b60405161034b919061198d565b60405180910390f35b34801561036057600080fd5b5061037b60048036038101906103769190611945565b610b88565b604051610388919061198d565b60405180910390f35b34801561039d57600080fd5b506103b860048036038101906103b391906116a3565b610bde565b6040516103c89493929190611a4c565b60405180910390f35b3480156103dd57600080fd5b506103e6610cd3565b6040516103f39190611b56565b60405180910390f35b34801561040857600080fd5b50610411610d61565b60405161041e91906118f7565b60405180910390f35b34801561043357600080fd5b5061043c610def565b604051610449919061172c565b60405180910390f35b34801561045e57600080fd5b50610467610df5565b6040516104749190611d14565b60405180910390f35b34801561048957600080fd5b506104a4600480360381019061049f91906116a3565b610f61565b6040516104b1919061172c565b60405180910390f35b6104d460048036038101906104cf91906116a3565b61103c565b005b3480156104e257600080fd5b506104fd60048036038101906104f891906119a8565b611295565b005b6001818154811061050f57600080fd5b906000526020600020016000915054906101000a900473ffffffffffffffffffffffffffffffffffffffff1681565b6000600354905090565b600560003373ffffffffffffffffffffffffffffffffffffffff1673ffffffffffffffffffffffffffffffffffffffff16815260200190815260200160002060009054906101000a900460ff16806105ed5750600260009054906101000a900473ffffffffffffffffffffffffffffffffffffffff1673ffffffffffffffffffffffffffffffffffffffff163373ffffffffffffffffffffffffffffffffffffffff16145b61062c576040517f08c379a000000000000000000000000000000000000000000000000000000000815260040161062390611d82565b60405180910390fd5b600460405180608001604052808673ffffffffffffffffffffffffffffffffffffffff16815260200185815260200184848080601f016020809104026020016040519081016040528093929190818152602001838380828437600081840152601f19601f82011690508083019250505050505050815260200160001515815250908060018154018082558091505060019003906000526020600020906004020160009091909190915060008201518160000160006101000a81548173ffffffffffffffffffffffffffffffffffffffff021916908373ffffffffffffffffffffffffffffffffffffffff160217905550602082015181600101556040820151816002019080519060200190610742929190611588565b5060608201518160030160006101000a81548160ff021916908315150217905550505060016004805490506107779190611dd1565b7f08324b3d745b914e3abd4ffbfead91e3b78391a98c173202129215ab933adfbe60405160405180910390a250505050565b6060600080546107b890611e34565b80601f01602080910402602001604051908101604052809291908181526020018280546107e490611e34565b80156108315780601f1061080657610100808354040283529160200191610831565b820191906000526020600020905b81548152906001019060200180831161081457829003601f168201915b5050505050905090565b600560003373ffffffffffffffffffffffffffffffffffffffff1673ffffffffffffffffffffffffffffffffffffffff16815260200190815260200160002060009054906101000a900460ff16806108e05750600260009054906101000a900473ffffffffffffffffffffffffffffffffffffffff1673ffffffffffffffffffffffffffffffffffffffff163373ffffffffffffffffffffffffffffffffffffffff16145b61091f576040517f08c379a000000000000000000000000000000000000000000000000000000000815260040161091690611d82565b60405180910390fd5b806004805490508110610967576040517f08c379a000000000000000000000000000000000000000000000000000000000815260040161095e90611eb2565b60405180910390fd5b816004818154811061097c5761097b611ed2565b5b906000526020600020906004020160030160009054906101000a900460ff16156109db576040517f08c379a00000000000000000000000000000000000000000000000000000000081526004016109d290611f4d565b60405180910390fd5b60016006600085815260200190815260200160002060003373ffffffffffffffffffffffffffffffffffffffff1673ffffffffffffffffffffffffffffffffffffffff16815260200190815260200160002060006101000a81548160ff0219169083151502179055610a4c57600080fd5b60006006600085815260200190815260200160002060003373ffffffffffffffffffffffffffffffffffffffff1673ffffffffffffffffffffffffffffffffffffffff16815260200190815260200160002060006101000a81548160ff021916908315150217905550823373ffffffffffffffffffffffffffffffffffffffff167fec9ab91322523c899ede7830ec9bfc992b5981cdcc27b91162fb23de5791117b60405160405180910390a3505050565b600260009054906101000a900473ffffffffffffffffffffffffffffffffffffffff1681565b60056020528060005260406000206000915054906101000a900460ff1681565b600047905090565b6000600180549050905090565b60066020528160005260406000206020528060005260406000206000915091509054906101000a900460ff1681565b6000600560008373ffffffffffffffffffffffffffffffffffffffff1673ffffffffffffffffffffffffffffffffffffffff16815260200190815260200160002060009054906101000a900460ff169050919050565b60048181548110610bee57600080fd5b90600052602060002090600402016000915090508060000160009054906101000a900473ffffffffffffffffffffffffffffffffffffffff1690806001015490806002018054610c3d90611e34565b80601f0160208091040260200160405190810160405280929190818152602001828054610c6990611e34565b8015610cb65780601f10610c8b57610100808354040283529160200191610cb6565b820191906000526020600020905b815481529060010190602001808311610c9957829003601f168201915b5050505050908060030160009054906101000a900460ff16905084565b60606001805480602002602001604051908101604052809291908181526020018280548015610d5757602002820191906000526020600020905b8160009054906101000a900473ffffffffffffffffffffffffffffffffffffffff1673ffffffffffffffffffffffffffffffffffffffff1681526020019060010190808311610d0d575b5050505050905090565b60008054610d6e90611e34565b80601f0160208091040260200160405190810160405280929190818152602001828054610d9a90611e34565b8015610de75780601f10610dbc57610100808354040283529160200191610de7565b820191906000526020600020905b815481529060010190602001808311610dca57829003601f168201915b505050505081565b60035481565b60606004805480602002602001604051908101604052809291908181526020016000905b82821015610f5857838290600052602060002090600402016040518060800160405290816000820160009054906101000a900473ffffffffffffffffffffffffffffffffffffffff1673ffffffffffffffffffffffffffffffffffffffff1673ffffffffffffffffffffffffffffffffffffffff16815260200160018201548152602001600282018054610eac90611e34565b80601f0160208091040260200160405190810160405280929190818152602001828054610ed890611e34565b8015610f255780601f10610efa57610100808354040283529160200191610f25565b820191906000526020600020905b815481529060010190602001808311610f0857829003601f168201915b505050505081526020016003820160009054906101000a900460ff16151515158152505081526020019060010190610e19565b50505050905090565b6000805b6001805490508110156110365760066000848152602001908152602001600020600060018381548110610f9b57610f9a611ed2565b5b9060005260206000200160009054906101000a900473ffffffffffffffffffffffffffffffffffffffff1673ffffffffffffffffffffffffffffffffffffffff1673ffffffffffffffffffffffffffffffffffffffff16815260200190815260200160002060009054906101000a900460ff1615611023576001826110209190611f6d565b91505b808061102e90611fc3565b915050610f65565b50919050565b806004805490508110611084576040517f08c379a000000000000000000000000000000000000000000000000000000000815260040161107b90611eb2565b60405180910390fd5b816004818154811061109957611098611ed2565b5b906000526020600020906004020160030160009054906101000a900460ff16156110f8576040517f08c379a00000000000000000000000000000000000000000000000000000000081526004016110ef90611f4d565b60405180910390fd5b60035461110484610f61565b1015611145576040517f08c379a000000000000000000000000000000000000000000000000000000000815260040161113c90612058565b60405180910390fd5b60006004848154811061115b5761115a611ed2565b5b9060005260206000209060040201905060008160000160009054906101000a900473ffffffffffffffffffffffffffffffffffffffff1673ffffffffffffffffffffffffffffffffffffffff168260010154836002016040516111be9190612117565b60006040518083038185875af1925050503d80600081146111fb576040519150601f19603f3d011682016040523d82523d6000602084013e611200565b606091505b5050905080611244576040517f08c379a000000000000000000000000000000000000000000000000000000000815260040161123b9061217a565b60405180910390fd5b60018260030160006101000a81548160ff021916908315150217905550847fddb556f1d2c1ec821e910b019d3685b229db152a0ecd517ca7e24b8bd713928960405160405180910390a25050505050565b600560003373ffffffffffffffffffffffffffffffffffffffff1673ffffffffffffffffffffffffffffffffffffffff16815260200190815260200160002060009054906101000a900460ff168061133a5750600260009054906101000a900473ffffffffffffffffffffffffffffffffffffffff1673ffffffffffffffffffffffffffffffffffffffff163373ffffffffffffffffffffffffffffffffffffffff16145b611379576040517f08c379a000000000000000000000000000000000000000000000000000000000815260040161137090611d82565b60405180910390fd5b8160048054905081106113c1576040517f08c379a00000000000000000000000000000000000000000000000000000000081526004016113b890611eb2565b60405180910390fd5b826006600082815260200190815260200160002060003373ffffffffffffffffffffffffffffffffffffffff1673ffffffffffffffffffffffffffffffffffffffff16815260200190815260200160002060009054906101000a900460ff1615611460576040517f08c379a0000000000000000000000000000000000000000000000000000000008152600401611457906121e6565b60405180910390fd5b836004818154811061147557611474611ed2565b5b906000526020600020906004020160030160009054906101000a900460ff16156114d4576040517f08c379a00000000000000000000000000000000000000000000000000000000081526004016114cb90611f4d565b60405180910390fd5b60016006600087815260200190815260200160002060008673ffffffffffffffffffffffffffffffffffffffff1673ffffffffffffffffffffffffffffffffffffffff16815260200190815260200160002060006101000a81548160ff021916908315150217905550848473ffffffffffffffffffffffffffffffffffffffff167f90ec57f18fa7b15c6b8d5e4d1deb90796c74b2ff23d4d0cecad0cb42a96b312860405160405180910390a35050505050565b82805461159490611e34565b90600052602060002090601f0160209004810192826115b657600085556115fd565b82601f106115cf57805160ff19168380011785556115fd565b828001600101855582156115fd579182015b828111156115fc5782518255916020019190600101906115e1565b5b50905061160a919061160e565b5090565b5b8082111561162757600081600090555060010161160f565b5090565b6000819050919050565b61163e8161162b565b82525050565b60006040820190506116596000830185611635565b6116666020830184611635565b9392505050565b600080fd5b600080fd5b6116808161162b565b811461168b57600080fd5b50565b60008135905061169d81611677565b92915050565b6000602082840312156116b9576116b861166d565b5b60006116c78482850161168e565b91505092915050565b600073ffffffffffffffffffffffffffffffffffffffff82169050919050565b60006116fb826116d0565b9050919050565b61170b816116f0565b82525050565b60006020820190506117266000830184611702565b92915050565b60006020820190506117416000830184611635565b92915050565b6000611752826116d0565b9050919050565b61176281611747565b811461176d57600080fd5b50565b60008135905061177f81611759565b92915050565b600080fd5b600080fd5b600080fd5b60008083601f8401126117aa576117a9611785565b5b8235905067ffffffffffffffff8111156117c7576117c661178a565b5b6020830191508360018202830111156117e3576117e261178f565b5b9250929050565b600080600080606085870312156118045761180361166d565b5b600061181287828801611770565b94505060206118238782880161168e565b935050604085013567ffffffffffffffff81111561184457611843611672565b5b61185087828801611794565b925092505092959194509250565b600081519050919050565b600082825260208201905092915050565b60005b8381101561189857808201518184015260208101905061187d565b838111156118a7576000848401525b50505050565b6000601f19601f8301169050919050565b60006118c98261185e565b6118d38185611869565b93506118e381856020860161187a565b6118ec816118ad565b840191505092915050565b6000602082019050818103600083015261191181846118be565b905092915050565b611922816116f0565b811461192d57600080fd5b50565b60008135905061193f81611919565b92915050565b60006020828403121561195b5761195a61166d565b5b600061196984828501611930565b91505092915050565b60008115159050919050565b61198781611972565b82525050565b60006020820190506119a2600083018461197e565b92915050565b600080604083850312156119bf576119be61166d565b5b60006119cd8582860161168e565b92505060206119de85828601611930565b9150509250929050565b6119f181611747565b82525050565b600081519050919050565b600082825260208201905092915050565b6000611a1e826119f7565b611a288185611a02565b9350611a3881856020860161187a565b611a41816118ad565b840191505092915050565b6000608082019050611a6160008301876119e8565b611a6e6020830186611635565b8181036040830152611a808185611a13565b9050611a8f606083018461197e565b95945050505050565b600081519050919050565b600082825260208201905092915050565b6000819050602082019050919050565b611acd816116f0565b82525050565b6000611adf8383611ac4565b60208301905092915050565b6000602082019050919050565b6000611b0382611a98565b611b0d8185611aa3565b9350611b1883611ab4565b8060005b83811015611b49578151611b308882611ad3565b9750611b3b83611aeb565b925050600181019050611b1c565b5085935050505092915050565b60006020820190508181036000830152611b708184611af8565b905092915050565b600081519050919050565b600082825260208201905092915050565b6000819050602082019050919050565b611bad81611747565b82525050565b611bbc8161162b565b82525050565b600082825260208201905092915050565b6000611bde826119f7565b611be88185611bc2565b9350611bf881856020860161187a565b611c01816118ad565b840191505092915050565b611c1581611972565b82525050565b6000608083016000830151611c336000860182611ba4565b506020830151611c466020860182611bb3565b5060408301518482036040860152611c5e8282611bd3565b9150506060830151611c736060860182611c0c565b508091505092915050565b6000611c8a8383611c1b565b905092915050565b6000602082019050919050565b6000611caa82611b78565b611cb48185611b83565b935083602082028501611cc685611b94565b8060005b85811015611d025784840389528151611ce38582611c7e565b9450611cee83611c92565b925060208a01995050600181019050611cca565b50829750879550505050505092915050565b60006020820190508181036000830152611d2e8184611c9f565b905092915050565b7f556e617574686f72697a65640000000000000000000000000000000000000000600082015250565b6000611d6c600c83611869565b9150611d7782611d36565b602082019050919050565b60006020820190508181036000830152611d9b81611d5f565b9050919050565b7f4e487b7100000000000000000000000000000000000000000000000000000000600052601160045260246000fd5b6000611ddc8261162b565b9150611de78361162b565b925082821015611dfa57611df9611da2565b5b828203905092915050565b7f4e487b7100000000000000000000000000000000000000000000000000000000600052602260045260246000fd5b60006002820490506001821680611e4c57607f821691505b60208210811415611e6057611e5f611e05565b5b50919050565b7f747820646f6573206e6f74206578697374000000000000000000000000000000600082015250565b6000611e9c601183611869565b9150611ea782611e66565b602082019050919050565b60006020820190508181036000830152611ecb81611e8f565b9050919050565b7f4e487b7100000000000000000000000000000000000000000000000000000000600052603260045260246000fd5b7f7468697320747820616c72656164792065786563757465640000000000000000600082015250565b6000611f37601883611869565b9150611f4282611f01565b602082019050919050565b60006020820190508181036000830152611f6681611f2a565b9050919050565b6000611f788261162b565b9150611f838361162b565b9250827fffffffffffffffffffffffffffffffffffffffffffffffffffffffffffffffff03821115611fb857611fb7611da2565b5b828201905092915050565b6000611fce8261162b565b91507fffffffffffffffffffffffffffffffffffffffffffffffffffffffffffffffff82141561200157612000611da2565b5b600182019050919050565b7f617070726f76616c73203c207265717569726564000000000000000000000000600082015250565b6000612042601483611869565b915061204d8261200c565b602082019050919050565b6000602082019050818103600083015261207181612035565b9050919050565b600081905092915050565b60008190508160005260206000209050919050565b600081546120a581611e34565b6120af8186612078565b945060018216600081146120ca57600181146120db5761210e565b60ff1983168652818601935061210e565b6120e485612083565b60005b83811015612106578154818901526001820191506020810190506120e7565b838801955050505b50505092915050565b60006121238284612098565b915081905092915050565b7f7478206661696c69640000000000000000000000000000000000000000000000600082015250565b6000612164600983611869565b915061216f8261212e565b602082019050919050565b6000602082019050818103600083015261219381612157565b9050919050565b7f747820616c726561647920617070726f76656400000000000000000000000000600082015250565b60006121d0601383611869565b91506121db8261219a565b602082019050919050565b600060208201905081810360008301526121ff816121c3565b905091905056fea2646970667358221220f595281f8b9bb2242a0ebd2da8d32e5678464161ccceffca42ee1dcb93206af564736f6c63430008090033a2646970667358221220345b967ab1cb93fc519135d06173291e5cf99618a0e6c8b86f9bba87b373607764736f6c63430008090033",
  "immutableReferences": {},
  "source": "// SPDX-License-Identifier: MIT\r\npragma solidity >=0.8.0;\r\n\r\nimport \"./MultiSigWallet.sol\";\r\n\r\n/**\r\n * WalletFactoryV4\r\n */\r\ncontract WalletFactoryV4 {\r\n    // Verifiable Credentials\r\n    struct VcInfo {\r\n        // VC\r\n        string name;\r\n        // VCCID(IPFS)\r\n        string cid;\r\n    }\r\n\r\n    struct userInfo {\r\n       address addr;\r\n\r\n       string privatekey;\r\n    }\r\n\r\n    // MultiSigWallet\r\n    MultiSigWallet[] public wallets;\r\n    // \r\n    uint256 constant maxLimit = 20;\r\n    // owner\r\n    address public owner;\r\n\r\n    // mapping\r\n    mapping(address => bool) public isRegistered;\r\n    mapping(string => bool) public userExist;\r\n    mapping(address => string) public dids;\r\n    mapping(string => address) public addrs;\r\n   \r\n    mapping(string => VcInfo[]) public vcs;\r\n    mapping(string => userInfo[] ) public users;\r\n\r\n    //modifier\r\n    modifier onlyOwner() {\r\n        require(msg.sender == owner, \"This address is not an owner address!\");\r\n        \r\n        _;\r\n    }\r\n\r\n    // event\r\n    event WalletCreated(\r\n        MultiSigWallet indexed wallet,\r\n        string name,\r\n        address[] owners,\r\n        uint256 required\r\n    );\r\n    event Registered(address addr, string did);\r\n    event Usercreated( string data, address addr, string privatekey);\r\n    event OwnershipTransferred(\r\n        address indexed previousOwner,\r\n        address indexed newOwner\r\n    );\r\n\r\n    /**\r\n     * \r\n     */\r\n    constructor() {\r\n        owner = msg.sender;\r\n    }\r\n\r\n    /**\r\n     * MultiSigWallet\r\n     */\r\n    function walletsCount() public view returns (uint256) {\r\n        return wallets.length;\r\n    }\r\n\r\n    /**\r\n     * MultiSigWallet\r\n     * @param _name \r\n     * @param _owners \r\n     * @param _required \r\n     */\r\n    function createWallet(\r\n        string memory _name,\r\n        address[] memory _owners,\r\n        uint256 _required\r\n    ) public {\r\n        // \r\n        MultiSigWallet wallet = new MultiSigWallet(_name, _owners, owner, _required);\r\n        // \r\n        wallets.push(wallet);\r\n        // \r\n        emit WalletCreated(wallet, _name, _owners, _required);\r\n    }\r\n\r\n    /**\r\n     * \r\n     */\r\n    function getWallets(uint256 limit, uint256 offset)\r\n        public\r\n        view\r\n        returns (MultiSigWallet[] memory coll)\r\n    {\r\n        require(offset <= walletsCount(), \"offset out of bounds\");\r\n        // limit\r\n        uint256 size = walletsCount() - offset;\r\n        size = size < limit ? size : limit;\r\n        // sizemaxLimit\r\n        size = size < maxLimit ? size : maxLimit;\r\n        coll = new MultiSigWallet[](size);\r\n\r\n        for (uint256 i = 0; i < size; i++) {\r\n            coll[i] = wallets[offset + i];\r\n        }\r\n        return coll;\r\n       \r\n    }\r\n\r\n    function deleteWallets(uint256 index)\r\n        public\r\n        onlyOwner\r\n    {\r\n        bool shift = false;\r\n        for (uint256 i = 0; i < wallets.length -1 ; i++) {\r\n            if (index == i) {\r\n                wallets[i] = wallets[i+1];\r\n                shift = true;\r\n                continue;\r\n            }\r\n            if(shift){\r\n                wallets[i] = wallets[i+1];\r\n            }\r\n            \r\n        } \r\n        wallets.pop();\r\n        //[\"0x5B38Da6a701c568545dCfcB03FcB875f56beddC4\",\"0xAb8483F64d9C6d1EcF9b849Ae677dD3315835cb2\"]\r\n    }\r\n\r\n    /**\r\n     * register\r\n     * @param _addr address\r\n     * @param _did DID\r\n     */\r\n    function register(address _addr, string memory _did) public onlyOwner {\r\n        // check\r\n        require(!isRegistered[_addr], \"This address is already registered!!\");\r\n\r\n        // set\r\n        isRegistered[_addr] = true;\r\n        dids[_addr] = _did;\r\n        addrs[_did] = _addr;\r\n\r\n        emit Registered(_addr, _did);\r\n    }\r\n\r\n    function creatUser( string memory _data, address _addr, string memory _privatekey) public onlyOwner {\r\n        // check\r\n        require(!userExist[_data], \"This address is already registered!!\");\r\n\r\n        // set\r\n        userExist[_data] = true;\r\n\r\n        userInfo[] storage coll = users[_data];\r\n\r\n        coll.push(userInfo({addr: _addr, privatekey: _privatekey}));\r\n\r\n        users[_data] = coll;\r\n\r\n        emit Usercreated(_data, _addr, _privatekey);\r\n    }\r\n\r\n    function getUser(string memory _data) public view returns (userInfo[] memory) {\r\n        return users[_data];\r\n    }\r\n\r\n    /**\r\n     * getVcs function\r\n     * @param _did DID\r\n     * @return vcs[_did] Verifiable Credentials\r\n     */\r\n    function getVcs(string memory _did) public view returns (VcInfo[] memory) {\r\n        return vcs[_did];\r\n    }\r\n\r\n\r\n    /**\r\n     * updatVc function\r\n     * @param _did DID\r\n     * @param _name VC Name\r\n     * @param _cid VC's CID\r\n     */\r\n    function updateVc(\r\n        string memory _did,\r\n        string memory _name,\r\n        string memory _cid\r\n    ) public {\r\n        // get Vcinfo\r\n        VcInfo[] storage coll = vcs[_did];\r\n\r\n        // puch new Vc info\r\n        coll.push(VcInfo({name: _name, cid: _cid}));\r\n        // register again\r\n        vcs[_did] = coll;\r\n    }\r\n\r\n    /**\r\n     * @dev Transfers ownership of the contract to a new account (`newOwner`).\r\n     * Can only be called by the current owner.\r\n     */\r\n    function transferOwnership(address newOwner) public virtual onlyOwner {\r\n        require(\r\n            newOwner != address(0),\r\n            \"Ownable: new owner is the zero address\"\r\n        );\r\n        _transferOwnership(newOwner);\r\n    }\r\n\r\n    /**\r\n     * @dev Transfers ownership of the contract to a new account (`newOwner`).\r\n     * Internal function without access restriction.\r\n     */\r\n    function _transferOwnership(address newOwner) internal virtual {\r\n        address oldOwner = owner;\r\n        owner = newOwner;\r\n        emit OwnershipTransferred(oldOwner, newOwner);\r\n    }\r\n}",
  "sourcePath": "/mnt/c/Users/papiarana/Downloads/IDQ Wallet/backend/contracts/Wallet/WalletFactoryV4.sol",
  "compiler": {
    "name": "solc",
    "version": "0.8.9+commit.e5eed63a.Emscripten.clang"
  },
  "schemaVersion": "3.4.15",
  "updatedAt": "2023-10-09T13:18:36.343Z",
  "networkType": "ethereum",
  "devdoc": {
    "kind": "dev",
    "methods": {
      "createWallet(string,address[],uint256)": {
        "params": {
          "_name": "",
          "_owners": "",
          "_required": ""
        }
      },
      "getVcs(string)": {
        "params": {
          "_did": "DID"
        },
        "returns": {
          "_0": "vcs[_did] Verifiable Credentials"
        }
      },
      "register(address,string)": {
        "params": {
          "_addr": "address",
          "_did": "DID"
        }
      },
      "transferOwnership(address)": {
        "details": "Transfers ownership of the contract to a new account (`newOwner`). Can only be called by the current owner."
      },
      "updateVc(string,string,string)": {
        "params": {
          "_cid": "VC's CID",
          "_did": "DID",
          "_name": "VC Name"
        }
      }
    },
    "version": 1
  },
  "userdoc": {
    "kind": "user",
    "methods": {
      "constructor": {
        "notice": ""
      },
      "createWallet(string,address[],uint256)": {
        "notice": "MultiSigWallet"
      },
      "getVcs(string)": {
        "notice": "getVcs function"
      },
      "getWallets(uint256,uint256)": {
        "notice": ""
      },
      "register(address,string)": {
        "notice": "register"
      },
      "updateVc(string,string,string)": {
        "notice": "updatVc function"
      },
      "walletsCount()": {
        "notice": "MultiSigWallet"
      }
    },
    "notice": "WalletFactoryV4",
    "version": 1
  }
}